{
  "contractName": "Store",
  "abi": [
    {
      "constant": true,
      "inputs": [
        {
          "name": "",
          "type": "address"
        }
      ],
      "name": "_userGas",
      "outputs": [
        {
          "name": "",
          "type": "uint256"
        }
      ],
      "payable": false,
      "stateMutability": "view",
      "type": "function"
    },
    {
      "constant": true,
      "inputs": [
        {
          "name": "",
          "type": "address"
        }
      ],
      "name": "_userCars",
      "outputs": [
        {
          "name": "",
          "type": "uint256"
        }
      ],
      "payable": false,
      "stateMutability": "view",
      "type": "function"
    },
    {
      "inputs": [
        {
          "name": "_storeTokenAddress",
          "type": "address"
        }
      ],
      "payable": false,
      "stateMutability": "nonpayable",
      "type": "constructor"
    },
    {
      "constant": false,
      "inputs": [],
      "name": "buyCar",
      "outputs": [
        {
          "name": "success",
          "type": "bool"
        }
      ],
      "payable": false,
      "stateMutability": "nonpayable",
      "type": "function"
    },
    {
      "constant": true,
      "inputs": [],
      "name": "getUserCars",
      "outputs": [
        {
          "name": "userCars",
          "type": "uint256"
        }
      ],
      "payable": false,
      "stateMutability": "view",
      "type": "function"
    },
    {
      "constant": false,
      "inputs": [
        {
          "name": "_amount",
          "type": "uint256"
        }
      ],
      "name": "buyGas",
      "outputs": [
        {
          "name": "success",
          "type": "bool"
        }
      ],
      "payable": false,
      "stateMutability": "nonpayable",
      "type": "function"
    },
    {
      "constant": true,
      "inputs": [],
      "name": "getUserGas",
      "outputs": [
        {
          "name": "userGas",
          "type": "uint256"
        }
      ],
      "payable": false,
      "stateMutability": "view",
      "type": "function"
    },
    {
      "constant": false,
      "inputs": [
        {
          "name": "_address",
          "type": "address"
        }
      ],
      "name": "release",
      "outputs": [
        {
          "name": "success",
          "type": "bool"
        }
      ],
      "payable": false,
      "stateMutability": "nonpayable",
      "type": "function"
    }
  ],
  "bytecode": "0x608060405260646002556001600355600060045534801561001f57600080fd5b50604051602080610ad88339810180604052602081101561003f57600080fd5b810190808051906020019092919050505080600560006101000a81548173ffffffffffffffffffffffffffffffffffffffff021916908373ffffffffffffffffffffffffffffffffffffffff16021790555050610a37806100a16000396000f3fe608060405260043610610083576000357c0100000000000000000000000000000000000000000000000000000000900463ffffffff16806319165587146100885780634fcb1505146100f15780637826c0b51461011c578063c27a399d1461014b578063c776bc5714610176578063cbe1107c146101db578063ff1e0d3c1461022e575b600080fd5b34801561009457600080fd5b506100d7600480360360208110156100ab57600080fd5b81019080803573ffffffffffffffffffffffffffffffffffffffff169060200190929190505050610293565b604051808215151515815260200191505060405180910390f35b3480156100fd57600080fd5b506101066103a1565b6040518082815260200191505060405180910390f35b34801561012857600080fd5b506101316103e8565b604051808215151515815260200191505060405180910390f35b34801561015757600080fd5b506101606106bc565b6040518082815260200191505060405180910390f35b34801561018257600080fd5b506101c56004803603602081101561019957600080fd5b81019080803573ffffffffffffffffffffffffffffffffffffffff169060200190929190505050610703565b6040518082815260200191505060405180910390f35b3480156101e757600080fd5b50610214600480360360208110156101fe57600080fd5b810190808035906020019092919050505061071b565b604051808215151515815260200191505060405180910390f35b34801561023a57600080fd5b5061027d6004803603602081101561025157600080fd5b81019080803573ffffffffffffffffffffffffffffffffffffffff1690602001909291905050506109f3565b6040518082815260200191505060405180910390f35b6000600560009054906101000a900473ffffffffffffffffffffffffffffffffffffffff1673ffffffffffffffffffffffffffffffffffffffff1663a9059cbb836004546040518363ffffffff167c0100000000000000000000000000000000000000000000000000000000028152600401808373ffffffffffffffffffffffffffffffffffffffff1673ffffffffffffffffffffffffffffffffffffffff16815260200182815260200192505050602060405180830381600087803b15801561035c57600080fd5b505af1158015610370573d6000803e3d6000fd5b505050506040513d602081101561038657600080fd5b81019080805190602001909291905050505060019050919050565b6000600160003373ffffffffffffffffffffffffffffffffffffffff1673ffffffffffffffffffffffffffffffffffffffff16815260200190815260200160002054905090565b6000600254600560009054906101000a900473ffffffffffffffffffffffffffffffffffffffff1673ffffffffffffffffffffffffffffffffffffffff1663dd62ed3e33306040518363ffffffff167c0100000000000000000000000000000000000000000000000000000000028152600401808373ffffffffffffffffffffffffffffffffffffffff1673ffffffffffffffffffffffffffffffffffffffff1681526020018273ffffffffffffffffffffffffffffffffffffffff1673ffffffffffffffffffffffffffffffffffffffff1681526020019250505060206040518083038186803b1580156104dc57600080fd5b505afa1580156104f0573d6000803e3d6000fd5b505050506040513d602081101561050657600080fd5b81019080805190602001909291905050501015151561052457600080fd5b600560009054906101000a900473ffffffffffffffffffffffffffffffffffffffff1673ffffffffffffffffffffffffffffffffffffffff166323b872dd33306002546040518463ffffffff167c0100000000000000000000000000000000000000000000000000000000028152600401808473ffffffffffffffffffffffffffffffffffffffff1673ffffffffffffffffffffffffffffffffffffffff1681526020018373ffffffffffffffffffffffffffffffffffffffff1673ffffffffffffffffffffffffffffffffffffffff1681526020018281526020019350505050602060405180830381600087803b15801561061f57600080fd5b505af1158015610633573d6000803e3d6000fd5b505050506040513d602081101561064957600080fd5b8101908080519060200190929190505050506002546004540160048190555060016000803373ffffffffffffffffffffffffffffffffffffffff1673ffffffffffffffffffffffffffffffffffffffff168152602001908152602001600020600082825401925050819055506001905090565b6000600160003373ffffffffffffffffffffffffffffffffffffffff1673ffffffffffffffffffffffffffffffffffffffff16815260200190815260200160002054905090565b60016020528060005260406000206000915090505481565b6000806002548302905080600560009054906101000a900473ffffffffffffffffffffffffffffffffffffffff1673ffffffffffffffffffffffffffffffffffffffff1663dd62ed3e33306040518363ffffffff167c0100000000000000000000000000000000000000000000000000000000028152600401808373ffffffffffffffffffffffffffffffffffffffff1673ffffffffffffffffffffffffffffffffffffffff1681526020018273ffffffffffffffffffffffffffffffffffffffff1673ffffffffffffffffffffffffffffffffffffffff1681526020019250505060206040518083038186803b15801561081557600080fd5b505afa158015610829573d6000803e3d6000fd5b505050506040513d602081101561083f57600080fd5b81019080805190602001909291905050501015151561085d57600080fd5b600560009054906101000a900473ffffffffffffffffffffffffffffffffffffffff1673ffffffffffffffffffffffffffffffffffffffff166323b872dd3330846040518463ffffffff167c0100000000000000000000000000000000000000000000000000000000028152600401808473ffffffffffffffffffffffffffffffffffffffff1673ffffffffffffffffffffffffffffffffffffffff1681526020018373ffffffffffffffffffffffffffffffffffffffff1673ffffffffffffffffffffffffffffffffffffffff1681526020018281526020019350505050602060405180830381600087803b15801561095657600080fd5b505af115801561096a573d6000803e3d6000fd5b505050506040513d602081101561098057600080fd5b8101908080519060200190929190505050508060045401600481905550826000803373ffffffffffffffffffffffffffffffffffffffff1673ffffffffffffffffffffffffffffffffffffffff168152602001908152602001600020600082825401925050819055506001915050919050565b6000602052806000526040600020600091509050548156fea165627a7a7230582058db7823474f5658cde1139cdc894b07fe18c8d7e84f528444b79bfaa34d5e900029",
  "source": "pragma solidity ^0.5.0;\n\nimport \"./StoreToken.sol\";\n\ncontract Store {\n    mapping(address => uint256) public _userCars;\n    mapping(address => uint256) public _userGas;\n    uint256 _carPrice = 100;\n    uint256 _gasPrice = 1;\n    uint256 _total = 0;\n\n    StoreToken private _storeToken;\n\n    constructor (address _storeTokenAddress) public {\n      _storeToken = StoreToken(_storeTokenAddress);\n    }\n\n\n    function buyCar() public returns (bool success) {\n      require(_storeToken.allowance(msg.sender, address(this)) >= _carPrice);\n      _storeToken.transferFrom(msg.sender, address(this), _carPrice);\n      _total = _total + _carPrice;\n      _userCars[msg.sender] += 1;\n      return true;\n    }\n\n    function getUserCars() public view returns (uint256 userCars) {\n      return _userGas[msg.sender];\n    }\n\n    function buyGas(uint256 _amount) public returns (bool success) {\n      uint256 _price = _amount * _carPrice;\n      require(_storeToken.allowance(msg.sender, address(this)) >= _price);\n      _storeToken.transferFrom(msg.sender, address(this), _price);\n      _total = _total + _price;\n      _userCars[msg.sender] += _amount;\n      return true;\n    }\n\n    function getUserGas() public view returns (uint256 userGas) {\n      return _userGas[msg.sender];\n    }\n\n    function release(address _address) public returns (bool success) {\n      _storeToken.transfer(_address, _total);\n      return true;\n    }\n}\n",
  "sourcePath": "/var/www/react-web3js/contracts/Store.sol",
  "compiler": {
    "name": "solc",
    "version": "0.5.0+commit.1d4f565a.Emscripten.clang"
  },
  "schemaVersion": "3.0.5",
  "updatedAt": "2019-03-26T16:46:52.807Z",
  "devdoc": {
    "methods": {}
  },
  "userdoc": {
    "methods": {}
  }
}